:020000040800F2
:1000000000280020BD0200080D0300080D030008B1
:100010000D0300080D0300080D0300080000000098
:100020000000000000000000000000000D030008B8
:100030000D030008000000000D0300080D03000878
:100040000D0300080D0300080D0300080D03000850
:100050000D0300080D0300080D0300080D03000840
:100060000D0300080D0300080D0300080D03000830
:100070000D0300080D0300080D0300080D03000820
:100080000D0300080D0300080D0300080D03000810
:100090000D0300080D0300080D0300080D03000800
:1000A0000D0300080D0300080D0300080D030008F0
:1000B0000D0300080D0300080D0300080D030008E0
:1000C0000D0300080D0300080D0300080D030008D0
:1000D0000D0300080D0300080D0300080D030008C0
:1000E0000D0300080D030008000000000D030008C8
:1000F0000D0300080D0300080D0300080D030008A0
:100100000D0300080D0300080D0300080D0300088F
:100110000D0300080D0300080D0300080D0300087F
:100120000D0300080D0300080D0300080D0300086F
:1001300010B5054C237833B9044B13B10448AFF321
:1001400000800123237010BD00000020000000008B
:100150005803000808B5034B1BB103490348AFF32C
:10016000008008BD000000000400002058030008C3
:1001700080B400AF074B1B68064A43F004031360CA
:10018000044B1B68034A43F00803136000BFBD46DD
:1001900080BC70471810024080B400AF1D4B1B6834
:1001A0001C4A23F0300313601A4B1B68194A43F0B2
:1001B00040031360184B1B68174A23F44013136065
:1001C000154B1B68144A43F480031360134B1B68E0
:1001D000124A43F020031360104B1B680F4A23F0B0
:1001E000C00313600E4B02221A600E4B1B680D4AAF
:1001F00043F4001313600B4B1B680A4A23F44003BB
:100200001360074B4FF400521A6000BFBD4680BC1C
:10021000704700BF0008014004080140000C014085
:100220000C0C0140040C014080B485B000AF786034
:100230000023FB600BE00023BB6002E0BB680133DE
:10024000BB60BB68FE2BF9D9FB680133FB60FA6821
:100250007B689A42EFD300BF1437BD4680BC70471D
:1002600080B500AFFFF784FFFFF796FF114B1B68C7
:1002700003F00203002B0CD10F4B1B680E4A83F0D6
:100280000203136000BF0B4B1B6803F00203002B3B
:10029000F9D0084B1B685B0B03F00103012B05D160
:1002A000054B1B68044A83F4005313600120FFF7D9
:1002B000BBFFDBE7080801400C0C01400D488546F8
:1002C000AFF300800C480D490D4A002302E0D458DA
:1002D000C4500433C4188C42F9D30A4A0A4C002390
:1002E00001E013600432A242FBD300F011F8FFF7E3
:1002F000B7FFFEE7002800200000002000000020DB
:1003000078030008000000201C000020FEE7000029
:1003100070B500250C4E0D4CA41BA410A54209D1AC
:1003200000F01AF800250A4E0A4CA41BA410A5429E
:1003300005D170BD56F8253098470135EEE756F8DF
:10034000253098470135F2E7700300087003000874
:100350007003000874030008F8B500BFF8BC08BCBF
:100360009E467047F8B500BFF8BC08BC9E46704773
:04037000550100082B
:04037400310100084B
:04000005080002BD30
:00000001FF
