:100000000C942A000C9459000C9478000C949700DE
:100010000C94D0000C94D0000C94D0000C94D00020
:100020000C94D0000C94D0000C94D0000C94D00010
:100030000C94D0000C94D0000C94D0000C94D00000
:100040000C94D0000C94D0000C94D0000C94D000F0
:100050000C94D00011241FBECFE5D8E0DEBFCDBF89
:0C0060000E94CB000C94B600F894FFCF77
:10006C0078948BB780648BBF8BB780688BBF8BB752
:10007C0080628BBF8AB780648ABF8AB780688ABF68
:10008C008AB780628ABF85B7816085BF85B78E7F4E
:10009C0085BF85B7846085BF85B7886085BF84B709
:0600AC00806484BF08958A
:1000B2001F920F920FB60F9211242F938F939F933B
:1000C20082B3806282BB2FEF89E698E121508040A3
:1000D2009040E1F700C0000082B38F7D82BB9F9108
:0E00E2008F912F910F900FBE0F901F901895C9
:1000F0001F920F920FB60F9211242F938F939F93FD
:1001000082B3806482BB2FEF89E698E12150804062
:100110009040E1F700C0000082B38F7B82BB9F91CB
:0E0120008F912F910F900FBE0F901F9018958A
:10012E001F920F920FB60F9211242F938F939F93BE
:10013E0082B3806882BB2FEF89E698E12150804020
:10014E009040E1F700C0000082B38F7782BB9F9191
:0E015E008F912F910F900FBE0F901F9018954C
:10016C00EC010E94D5000E94D400CE010E94D60062
:06017C00CE010E94D2003A
:1001820081B3806281BB81B3806481BB81B38068AB
:0401920081BB089590
:0A0196000E94C1000E943600FFCF56
:0401A0000C940000BB
:0401A4000E94340081
:0201A8000895B8
:0201AA000895B6
:0201AC000895B4
:00000001FF
