:100000000C942A000C9434000C9434000C943400AA
:100010000C9434000C9434000C9434000C94340090
:100020000C9434000C9434000C9434000C94340080
:100030000C9434000C9434000C9434000C94340070
:100040000C9434000C9434000C9434000C94340060
:100050000C94340011241FBECFE5D8E0DEBFCDBF25
:100060000E9447000C945B000C94000087B38064EE
:1000700087BB87B38F7487BB80E48DB908958FB930
:10008000779BFECF8FB108958FEF8ABB08950E94B2
:1000900036000E944400C0E02FE38DE093E0215041
:1000A00080409040E1F700C000008C2F0E943F008C
:0A00B0008BBBCF5FF1CFF894FFCFB8
:00000001FF
