S01A000055385F4C325F554152545F53656374696F6E2E73726563D1
S11300000C942A000C943F000C943F000C943F0085
S11300100C943F000C943F000C943F000C943F0060
S11300200C943F000C943F000C943F000C943F0050
S11300300C943F000C943F000C943F000C943F0040
S11300400C943F000C943F000C943F000C943F0030
S11300500C943F0011241FBECFE5D8E0DEBFCDBF16
S113006010E0A0E6B0E0E0E8F2E002C005900D92F6
S1130070A836B107D9F70E94F9000C943E010C94FC
S113008000008FEF82BB80EF81BB089588B3886046
S113009088BB83ED90E30197F1F700C0000088B3BB
S11300A0877F88BB08951ABA88B3846088BB88B3F5
S11300B08D7F88BB0E9446008FEF8ABB88B38D7FFB
S11300C088BB0895CF93C82F0E945300CBBB88B33D
S11300D08D7F88BB88B38B7F88BB89EF90E00197C5
S11300E0F1F700C000000E944600CF91089581E01E
S11300F00E9462000895613190F4813039F480E8FF
S1130100860F0E94620081E090E00895823051F4ED
S113011080EC860F0E94620081E090E0089580E008
S113012090E0089581E090E0089587E893E10197D5
S1130130F1F700C000008FEF8ABB8EE087BB88B365
S1130140817F88BB85EA9EE00197F1F700C000003B
S113015088E30E94620081E00E94620082E00E94C3
S1130160620086E00E94620080E80E9462008FE0E4
S11301700E9462000895CF93C82F0E945300CBBB06
S113018088B3826088BB88B38B7F88BB89EF90E09B
S11301900197F1F700C000000E944600CF91089536
S11301A00F931F93CF93DF938C01C0E0D0E018C06E
S11301B021960F5F1F4F0E94BB00C031D10529F467
S11301C060E082E00E947B000BC0C032D10541F4A4
S11301D00E94770060E082E00E947B00C0E0D0E0F3
S11301E0F80180818111E4CFDF91CF911F910F91AC
S11301F008950E9495000E9441000E94150180E626
S113020090E00E94D0008DE40E94360189E50E94AE
S1130210360184E50E94360160E082E00E947B00A2
S11302200E943A010E94BB00FBCF83E389B98BB1E2
S11302308D7F8BB980B5826080BD80B5846080BDC0
S113024080B58B7F80BD8AB1877F8AB980B58F7D69
S113025080BD80B58F7E80BD80B58F7B80BD8AB127
S113026088608AB98AB180618AB908955D9BFECF9E
S11302708CB908955F9BFECF8CB10895F894FFCF9D
S10B0280554152543A200000DC
S9030000FC
