:100000000C942A000C9434000C9434000C943400AA
:100010000C9434000C9434000C9434000C94340090
:100020000C9434000C9434000C9434000C94340080
:100030000C9434000C9434000C9434000C94340070
:100040000C9434000C9434000C9434000C94340060
:100050000C94340011241FBECFE5D8E0DEBFCDBF25
:100060000E945D000C9482000C94000087B3806BAA
:1000700087BB87B38F7B87BB81E58DB9089598B324
:100080009F7E98BB8FB9779BFECF6FB9779BFECFD2
:1000900088B3806188BB08956FEF89E00E943F00BC
:1000A00067E08BE00E943F006FE08AE00E943F0023
:1000B00061E08CE00E943F0008950E9436000E949B
:1000C0004C0060E0C12CD12C7601C3940BC0C1E080
:1000D000C60F8C2D0E943F002FEFC21AD20AE20AEF
:1000E000F20A6C2F89E0C816D104E104F10478F318
:1000F0009FE72AE186E0915020408040E1F700C070
:080100000000E0CFF894FFCFEE
:00000001FF
