:100000000C942A000C9447000C9447000C94470071
:100010000C9447000C9447000C9447000C94470044
:100020000C9447000C9447000C9447000C94470034
:100030000C94D4010C9447000C9447000C94470096
:100040000C9447000C9447000C9447000C94470014
:100050000C94470011241FBECFE5D8E0DEBFCDBF12
:1000600010E0A0E6B0E0E4EDF9E002C005900D92EA
:10007000AE36B107D9F720E0AEE6B0E001C01D9280
:10008000A037B207E1F70E9429010C94E8040C9410
:10009000000088B3886088BB83ED90E30197F1F797
:1000A00000C0000088B3877F88BB08951ABA88B360
:1000B000846088BB88B38D7F88BB0E9449008FEF26
:1000C0008ABB88B38D7F88BB0895CF93C82F0E94C9
:1000D0005600CBBB88B38D7F88BB88B38B7F88BB32
:1000E00089EF90E00197F1F700C000000E944900FD
:1000F000CF91089581E00E9465000895613190F4E8
:10010000813039F480E8860F0E94650081E090E03C
:100110000895823051F480EC860F0E94650081E0E2
:1001200090E0089580E090E0089581E090E00895E7
:1001300087E893E10197F1F700C000008FEF8ABBD9
:100140008EE087BB88B3817F88BB85EA9EE00197FC
:10015000F1F700C0000088E30E94650081E00E9482
:10016000650082E00E94650086E00E94650080E8EC
:100170000E9465008FE00E9465000895CF93C82F0C
:100180000E945600CBBB88B3826088BB88B38B7F4C
:1001900088BB89EF90E00197F1F700C000000E9452
:1001A0004900CF9108950F931F93CF93DF938C0154
:1001B000C0E0D0E018C021960F5F1F4F0E94BE0024
:1001C000C031D10529F460E082E00E947E000BC0BE
:1001D000C032D10541F40E947A0060E082E00E94C2
:1001E0007E00C0E0D0E0F80180818111E4CFDF9192
:1001F000CF911F910F9108950F931F93CF93DF938A
:10020000CDB7DEB727970FB6F894DEBF0FBECDBFD0
:100210009F938F9380E690E09F938F938E010F5F63
:100220001F4F1F930F930E94FE01C8010E94D3002D
:100230000F900F900F900F900F900F9027960FB682
:10024000F894DEBF0FBECDBFDF91CF911F910F910C
:100250000895CF93DF931F92CDB7DEB781E48983F2
:100260000E949800E0E0F0E0118214821282138272
:1002700080E18083158217821682CF010E94A80137
:1002800083E690E00E94D30083ED90E30197F1F7BD
:1002900000C0000088B3806188BB11E001C0102F4E
:1002A00088B38F7E88BB83EC99E00197F1F700C09B
:1002B000000060E0CE0101960E94CC0188B380610D
:1002C00088BB6BE081E00E947E0089810E94BE00B5
:1002D00089818F5F89838B3511F481E489836EE096
:1002E00081E00E947E0001E0010F812F90E00E94DA
:1002F000FC009FE72AE186E0915020408040E1F732
:1003000000C000000B3159F66EE081E00E947E00D3
:100310008AE090E00E94FC00C0CFE0916E00F09176
:100320006F008081803151F487B3806B87BB87B3C6
:100330008F7B87BB88B3806488BB089587B3806454
:1003400087BB87B38F7487BB88B3806B88BB0895E6
:10035000CF93DF93EC0190936F0080936E000E9427
:100360008D0128818EB19C81982B9EB98881803126
:1003700011F48981282B8A81822B9B81892B9D8175
:10038000903819F49FB790689FBF9D81892B806436
:100390008DB9DF91CF910895FC0180818FB96111F2
:1003A00002C0779BFECF08951F920F920FB60F9257
:1003B00011242F933F934F935F936F937F938F936A
:1003C0009F93AF93BF93EF93FF93E0916E00F091F3
:1003D0006F000680F781E02D0995FF91EF91BF91A5
:1003E000AF919F918F917F916F915F914F913F91CD
:1003F0002F910F900FBE0F901F901895AEE0B0E0B8
:10040000E4E0F2E00C94BF040D891E8986E08C8341
:100410001A8309838FEF9FE79E838D83AE01475E2A
:100420005F4F6F89788DCE0101960E942002EF8187
:10043000F885E00FF11F10822E96E4E00C94DB04A7
:10044000ABE0B0E0E6E2F2E00C94B1046C017B01B9
:100450008A01FC0117821682838181FFCCC1CE0103
:1004600001963C01F6019381F70193FD859193FF7D
:1004700081917F01882309F4BAC1853239F493FD53
:10048000859193FF81917F01853229F4B60190E037
:100490000E941704E7CF912C212C312CFFE1F3159A
:1004A000D8F08B3279F038F4803279F08332A1F4CD
:1004B000232D20611DC08D3261F0803369F4232D1E
:1004C000216016C0832D8260382EE32DE4603E2E1D
:1004D0002AC0F32DF8601DC037FC2DC020ED280F79
:1004E0002A3040F08E32B9F436FC81C1232D2064CD
:1004F000322E19C036FE06C08AE0989E200D1124C7
:10050000922E11C0EAE02E9E200D1124222EF32DF2
:10051000F0623F2E08C08C3621F4832D8068382E7F
:1005200002C0883641F4F70193FD859193FF8191D4
:100530007F018111B3CF982F9F7D9554933028F47C
:100540000C5F1F4F9FE399830DC0833631F08337D3
:1005500071F0833509F059C021C0F8018081898389
:100560000E5F1F4F88248394912C530113C02801E0
:10057000F2E04F0E511CF801A080B18036FE03C09E
:10058000692D70E002C06FEF7FEFC5010E940C047F
:100590004C018201F32DFF773F2E16C0280122E087
:1005A000420E511CF801A080B18036FE03C0692DB7
:1005B00070E002C06FEF7FEFC5010E9401044C01A3
:1005C000F32DF0683F2E820133FC1BC0822D90E09A
:1005D00088169906B0F4B60180E290E00E941704F4
:1005E0002A94F4CFF50137FC859137FE81915F01A4
:1005F000B60190E00E94170421102A9421E0821A8B
:1006000091088114910471F7E8C0843611F089369D
:1006100041F5F80137FE07C06081718182819381C5
:100620000C5F1F4F08C060817181072E000C880B82
:10063000990B0E5F1F4FF32DFF763F2E97FF09C0DA
:1006400090958095709561957F4F8F4F9F4FF06883
:100650003F2E2AE030E0A3010E945304882E861822
:1006600045C0853731F4232D2F7EB22E2AE030E0AD
:1006700025C0932D997FB92E8F36C1F018F4883597
:1006800079F0B5C0803719F0883721F0B0C0E92F74
:10069000E061BE2EB4FE0DC0FB2DF460BF2E09C07C
:1006A00034FE0AC0292F2660B22E06C028E030E0B2
:1006B00005C020E130E002C020E132E0F801B7FEE1
:1006C00007C060817181828193810C5F1F4F06C0DA
:1006D0006081718180E090E00E5F1F4FA3010E9456
:1006E0005304882E8618FB2DFF773F2E36FE0DC053
:1006F000232D2E7FA22E891458F434FE0BC032FC19
:1007000009C0832D8E7EA82E05C0B82CA32C03C053
:10071000B82C01C0B92CA4FE0FC0FE01E80DF11DDC
:100720008081803321F49A2D997EA92E09C0A2FEE2
:1007300006C0B394B39404C08A2D867809F0B394AC
:10074000A3FC11C0A0FE06C0B21488F4280C922CA1
:100750009B180EC0B21460F4B60180E290E00E94D3
:100760001704B394F7CFB21418F42B1802C0982CC6
:10077000212CA4FE10C0B60180E390E00E94170473
:10078000A2FE17C0A1FC03C088E790E002C088E584
:1007900090E0B6010CC08A2D867859F0A1FE02C007
:1007A0008BE201C080E2A7FC8DE2B60190E00E94DE
:1007B0001704891438F4B60180E390E00E9417040E
:1007C0009A94F7CF8A94F301E80DF11D8081B60168
:1007D00090E00E9417048110F5CF222009F442CE48
:1007E000B60180E290E00E9417042A94F6CFF60149
:1007F0008681978102C08FEF9FEF2B96E2E10C94E8
:10080000CD04FC010590615070400110D8F780952F
:1008100090958E0F9F1F0895FC01615070400190CC
:100820000110D8F7809590958E0F9F1F08950F9314
:100830001F93CF93DF93FB01238121FD03C08FEF33
:100840009FEF2CC022FF16C046815781248135813D
:100850004217530744F4A081B1819D012F5F3F4FA0
:10086000318320838C93268137812F5F3F4F3783DD
:10087000268314C08B01EC01FB010084F185E02D7F
:100880000995892BE1F6D80116968D919C911797C1
:10089000019617969C938E931697CE01DF91CF9178
:1008A0001F910F910895FA01AA27283051F12031A4
:1008B00081F1E8946F936E7F6E5F7F4F8F4F9F4FF4
:1008C000AF4FB1E03ED0B4E03CD0670F781F891F36
:1008D0009A1FA11D680F791F8A1F911DA11D6A0F04
:1008E000711D811D911DA11D20D009F468943F91B7
:1008F0002AE0269F11243019305D3193DEF6CF01B6
:100900000895462F4770405D4193B3E00FD0C9F77B
:10091000F6CF462F4F70405D4A3318F0495D31FDE8
:100920004052419302D0A9F7EACFB4E0A69597953B
:10093000879577956795BA95C9F700976105710511
:1009400008959B01AC010A2E06945795479537955B
:100950002795BA95C9F7620F731F841F951FA01DB5
:1009600008952F923F924F925F926F927F928F9253
:100970009F92AF92BF92CF92DF92EF92FF920F932E
:100980001F93CF93DF93CDB7DEB7CA1BDB0B0FB638
:10099000F894DEBF0FBECDBF09942A8839884888F5
:1009A0005F846E847D848C849B84AA84B984C8848B
:1009B000DF80EE80FD800C811B81AA81B981CE0F82
:1009C000D11D0FB6F894DEBF0FBECDBFED01089567
:0409D000F894FFCFC9
:0E09D4002564004D6173746572203E3E200064
:00000001FF
