:100000000C942A000C9447000C9447000C94470071
:100010000C9447000C9447000C9447000C94470044
:100020000C9447000C9447000C9447000C94470034
:100030000C94B9000C9447000C9447000C944700B2
:100040000C9447000C9447000C9447000C94470014
:100050000C94470011241FBECFE5D8E0DEBFCDBF12
:1000600010E0A0E6B0E0EEE0F2E002C005900D92F4
:10007000A236B107D9F720E0A2E6B0E001C01D9298
:10008000A436B207E1F70E9449000C9405010C94D4
:10009000000068E470E080E090E00E946A0080E088
:1000A00090E0EC0121960E949C00CE01FACF84EAF8
:1000B00086BF06B607FEFDCF81B18830E9F7089507
:1000C00084E986BF089583B984E886BF06B607FE33
:1000D000FDCF08959B01AC0160E472E48FE090E0F5
:1000E0000E94E300CA01B9016051710981099109B7
:1000F0002091600030E0220F331F032E000C440BD0
:10010000550B0E94E30020B980916000843059F0C3
:1001100018F4813031F00895803141F0803449F095
:10012000089511B8089581E081B9089582E081B9F8
:10013000089583E081B90895CF93C82F2FE78AE10E
:1001400096E0215080409040E1F700C000000E94FE
:10015000570080ED0E94630081B18831E9F78C2F50
:100160000E94630081B18832E9F70E946000CF915C
:1001700008951F920F920FB60F9211242F933F9361
:100180004F935F936F937F938F939F93AF93BF939F
:10019000EF93FF93E0916200F09163000680F78196
:1001A000E02D0995FF91EF91BF91AF919F918F91B4
:1001B0007F916F915F914F913F912F910F900FBE63
:1001C0000F901F901895A1E21A2EAA1BBB1BFD01D0
:1001D0000DC0AA1FBB1FEE1FFF1FA217B307E40726
:1001E000F50720F0A21BB30BE40BF50B661F771F7E
:1001F000881F991F1A9469F760957095809590955E
:0E0200009B01AC01BD01CF010895F894FFCF22
:02020E000100ED
:00000001FF
