:020000040800F2
:100000000C040020AD00000865010008650100082F
:1000100065010008650100086501000880B400AFB3
:10002000BD4680BC704700BF80B500AF41F21443AD
:10003000C2F200034FF000021A7000F00DFA0246FF
:1000400040F20803C2F200031A6000F001F880BD1C
:1000500080B500AF41F21443C2F200034FF0010239
:100060001A7000F009F840F20803C2F200031B689E
:10007000184600F0E7F880BD80B500AF41F21443A8
:10008000C2F200034FF002021A7045F69070C0F2FF
:10009000010000F0CFF941F21043C2F2000340F238
:1000A0002902C0F600021A6080BD00BF80B586B08C
:1000B00000AF4FF000037B6140F20802C2F2000281
:1000C00040F20003C2F20003D31ABB6040F2405377
:1000D000C0F600033B6140F20003C2F20003FB6084
:1000E0004FF000037B610FE03B691A78FB681A70E0
:1000F000FB6803F10103FB603B6903F101033B6112
:100100007B6903F101037B617A69BB689A42EBD397
:1001100040F21042C2F2000240F20803C2F20003B1
:10012000D31A7B6040F20803C2F20003FB604FF079
:1001300000037B610BE0FB684FF000021A70FB6864
:1001400003F10103FB607B6903F101037B617A69C1
:100150007B689A42EFD300F039F807F11807BD46E3
:1001600080BD00BF80B500AFFFF7A0FF80BD00BF1E
:1001700080B500AF00F0A4F9FFF750FF00F0FAF8E7
:1001800041F21043C2F2000340F22902C0F600021D
:100190001A6041F21C43C2F2000340F2A522C0F6ED
:1001A00000021A6041F22043C2F2000340F2ED2245
:1001B000C0F600021A6041F22843C2F2000340F286
:1001C0008132C0F600021A6080BD00BF80B582B0E7
:1001D00000AF4FF000033B60FFF7CAFF28E041F299
:1001E0001043C2F200031B68984741F21C43C2F25D
:1001F00000031B68984741F22043C2F200031B68CA
:10020000984741F22843C2F200031B6898474FF019
:1002100000037B6003E07B6803F101037B607A6885
:1002200040F2E7339A42F6DD3B6803F101033B609D
:100230003B681D2BD3DD4FF00003184607F108077C
:10024000BD4680BD80B582B000AF786040F20C43FF
:10025000C2F200037A681A6040F20C43C2F2000353
:100260001A6840F20003C2F200031B689A4209DCDC
:1002700041F21C43C2F2000340F2A522C0F6000284
:100280001A600AE000F024F841F21C43C2F20003B5
:1002900040F2A522C0F600021A6007F10807BD4629
:1002A00080BD00BF80B400AF41F22443C2F200031E
:1002B0004FF000021A7041F21C43C2F2000340F2F8
:1002C000A522C0F600021A60BD4680BC704700BF80
:1002D00080B400AF41F22043C2F2000340F2053285
:1002E000C0F600021A60BD4680BC704780B500AF02
:1002F00041F22543C2F200034FF000021A7000F0F1
:1003000087F880BD80B500AF41F22543C2F20003FB
:100310004FF001021A7000F069F841F22043C2F276
:10032000000340F23132C0F600021A6080BD00BF07
:1003300080B500AF41F22543C2F200034FF0020244
:100340001A7040F20403C2F200031B68184600F062
:1003500071F841F22043C2F2000340F2ED22C0F6F0
:1003600000021A6041F22043C2F200031B68984762
:1003700080BD00BF80B400AFBD4680BC704700BFE9
:1003800080B400AF41F21843C2F200034FF0000204
:100390001A7041F22843C2F2000340F28132C0F6E3
:1003A00000021A60BD4680BC704700BF80B500AF38
:1003B0004FF0000000F05CF841F22843C2F2000365
:1003C00040F28132C0F600021A6080BD80B500AFF5
:1003D0004FF0010000F04CF841F22843C2F2000354
:1003E00040F28132C0F600021A6080BD80B500AFD5
:1003F00041F22843C2F2000340F2AD32C0F60002DF
:100400001A6041F22843C2F200031B68984780BD7E
:1004100080B500AF41F22843C2F2000340F2CD3272
:10042000C0F600021A6041F22843C2F200031B68C2
:10043000984780BD80B483B000AF786003E07B68EC
:1004400003F1FF337B607B68002BF8D107F10C07C9
:10045000BD4680BC704700BF80B400AF40F60803C3
:10046000C4F201031B68DBB21846BD4680BC70476E
:1004700080B483B000AF78607B68012B0CD140F66C
:100480000C03C4F2010340F60C02C4F2010212682C
:1004900042F400521A600EE07B68002B0BD140F64C
:1004A0000C03C4F2010340F60C02C4F2010212680C
:1004B00022F400521A6007F10C07BD4680BC704759
:1004C00080B400AF41F21803C4F2020341F21802F3
:1004D000C4F20202126842F004021A604FF4006390
:1004E000C4F201034FF40062C4F20102126822F464
:1004F00070021A604FF40063C4F201034FF400620B
:10050000C4F2010212681A6040F60403C4F2010347
:1005100040F60402C4F20102126822F470021A606A
:1005200040F60403C4F2010340F60402C4F20102DF
:10053000126842F022321A60BD4680BC704700BF8C
:0805400014000000C0270900AF
:0400000508000000EF
:00000001FF
