:100000000C942A000C943F000C943F000C943F0089
:100010000C943F000C943F000C943F000C943F0064
:100020000C943F000C943F000C943F000C943F0054
:100030000C943F000C943F000C943F000C943F0044
:100040000C943F000C943F000C943F000C943F0034
:100050000C943F0011241FBECFE5D8E0DEBFCDBF1A
:1000600010E0A0E6B0E0E4E0F3E002C005900D92FD
:10007000A037B107D9F70E946F010C9480010C944E
:1000800000008FEF82BB80EF81BB089540E050E01D
:1000900090C062B3F901EE0FFF1FE05AFF4F81E0FD
:1000A00090E0008002C0880F991F0A94E2F7862B27
:1000B00082BB2F5F3F4F02C020E030E0243031058B
:1000C00044F322B3FA01EE0FFF1FE05AFF4F81E025
:1000D00090E0008002C0880F991F0A94E2F7809593
:1000E000822382BB60E070E05EC080B3FB01EE0F54
:1000F000FF1FE859FF4F208190E0022E02C0959526
:1001000087950A94E2F780FD4CC080B390E0022E00
:1001100002C0959587950A94E2F780FFF6CF4130AB
:100120005105C9F024F44115510541F03AC042305F
:100130005105F1F04330510541F133C061157105AE
:10014000F1F161307105E9F162307105E1F163307F
:10015000710539F53AC061157105C9F16130710554
:10016000C1F162307105B9F163307105D1F435C068
:1001700061157105A1F16130710599F16230710568
:1001800091F16330710569F430C06115710579F141
:100190006130710571F16230710569F1633071058B
:1001A00061F16F5F7F4F643071050CF49ECF4F5F3C
:1001B0005F4F443051050CF47FCF81E4089587E30D
:1001C000089584E3089581E308958FE3089588E313
:1001D000089585E3089582E3089580E3089589E30F
:1001E000089586E3089583E308958DE308958FE2EB
:1001F00008958AE208958DE208958BE2089588B308
:10020000886088BB83ED90E30197F1F700C00000A0
:1002100088B3877F88BB08951ABA88B3846088BB87
:1002200088B38D7F88BB0E94FF008FEF8ABB88B3A5
:100230008D7F88BB0895CF93C82F0E940C01CBBB44
:1002400088B38D7F88BB88B38B7F88BB89EF90E0B4
:100250000197F1F700C000000E94FF00CF910895C0
:1002600081E00E941B01089587E893E10197F1F76F
:1002700000C000008FEF8ABB8EE087BB88B3817F10
:1002800088BB85EA9EE00197F1F700C0000088E393
:100290000E941B0181E00E941B0182E00E941B0161
:1002A00086E00E941B0180E80E941B018FE00E94F3
:1002B0001B010895CF93C82F0E940C01CBBB88B3BC
:1002C000826088BB88B38B7F88BB89EF90E0019701
:1002D000F1F700C000000E94FF00CF9108950E9436
:1002E00034010E9441000E9446008F3319F081348E
:1002F000D1F303C00E943001F6CF0E945A01F3CF20
:04030000F894FFCF9F
:1003040004000500060007000000010002000300CD
:00000001FF
