:100000000C942A000C9447000C9447000C94470071
:100010000C9447000C9447000C9447000C94470044
:100020000C9447000C9447000C9447000C94470034
:100030000C946E000C9447000C9447000C944700FD
:100040000C9447000C9447000C9447000C94470014
:100050000C94470011241FBECFE5D8E0DEBFCDBF12
:1000600010E0A0E6B0E0E4E3F1E002C005900D92FC
:10007000A036B107D9F720E0A0E6B0E001C01D929C
:10008000A236B207E1F70E9449000C9498000C9444
:1000900000008FEF8ABB80ED0E9468000E946A001A
:1000A0008BBBFCCF813011F494EC96BF06B607FEF3
:1000B000FDCF91B19036E9F7813011F484EC86BF21
:1000C00006B607FEFDCF81B18038E9F783B1089508
:1000D00082B9089581E00E94520008951F920F9204
:1000E0000FB60F9211242F933F934F935F936F930B
:1000F0007F938F939F93AF93BF93EF93FF93E09181
:100100006000F09161000680F781E02D0995FF9174
:10011000EF91BF91AF919F918F917F916F915F917F
:100120004F913F912F910F900FBE0F901F901895F8
:04013000F894FFCF71
:00000001FF
