:100000000C942A000C9447000C9447000C94470071
:100010000C9447000C9447000C9447000C94470044
:100020000C9447000C9447000C9447000C94470034
:100030000C947D010C9447000C9447000C944700ED
:100040000C9447000C9447000C9447000C94470014
:100050000C94470011241FBECFE5D8E0DEBFCDBF12
:1000600010E0A0E6B0E0E2E5F3E002C005900D92FA
:10007000A237B107D9F720E0A2E7B0E001C01D9296
:10008000A537B207E1F70E940A010C94A7010C946E
:10009000000088B3886088BB83ED90E30197F1F797
:1000A00000C0000088B3877F88BB08951ABA88B360
:1000B000846088BB88B38D7F88BB0E9449008FEF26
:1000C0008ABB88B38D7F88BB0895CF93C82F0E94C9
:1000D0005600CBBB88B38D7F88BB88B38B7F88BB32
:1000E00089EF90E00197F1F700C000000E944900FD
:1000F000CF91089581E00E9465000895613190F4E8
:10010000813039F480E8860F0E94650081E090E03C
:100110000895823051F480EC860F0E94650081E0E2
:1001200090E0089580E090E0089581E090E00895E7
:1001300087E893E10197F1F700C000008FEF8ABBD9
:100140008EE087BB88B3817F88BB85EA9EE00197FC
:10015000F1F700C0000088E30E94650081E00E9482
:10016000650082E00E94650086E00E94650080E8EC
:100170000E9465008FE00E9465000895CF93C82F0C
:100180000E945600CBBB88B3826088BB88B38B7F4C
:1001900088BB89EF90E00197F1F700C000000E9452
:1001A0004900CF9108950F931F93CF93DF938C0154
:1001B000C0E0D0E018C021960F5F1F4F0E94BE0024
:1001C000C031D10529F460E082E00E947E000BC0BE
:1001D000C032D10541F40E947A0060E082E00E94C2
:1001E0007E00C0E0D0E0F80180818111E4CFDF9192
:1001F000CF911F910F91089580E00E947701809325
:1002000072006BE082E00E947E00809172000E948A
:10021000BE0008950E949800E0E0F0E01182148290
:1002200012821382108280E885838CEF90E097839E
:100230008683CF010E9453010E947A0060E081E032
:100240000E947E0080E690E00E94D30060E082E0A1
:100250000E947E0087E690E00E94D30083ED90E349
:100260000197F1F700C0000088B3806188BBFFCF21
:10027000E0917300F09174008081803151F487B374
:10028000806B87BB87B38F7B87BB88B3806488BB59
:10029000089587B3806487BB87B38F7487BB88B3A7
:1002A000806B88BB0895CF93DF93EC01909374002B
:1002B000809373000E94380128818EB19C81982B15
:1002C0009EB98881803111F48981282B8A81822B03
:1002D0009B81892B9D81903819F49FB790689FBFAF
:1002E0009D81892B80648DB9DF91CF910895811113
:1002F00002C0779BFECF8FB108951F920F920FB669
:100300000F9211242F933F934F935F936F937F939B
:100310008F939F93AF93BF93EF93FF93E0917300FD
:10032000F09174000680F781E02D0995FF91EF911F
:10033000BF91AF919F918F917F916F915F914F91FD
:100340003F912F910F900FBE0F901F901895F8942A
:02035000FFCFDD
:10035200536C6176653A0052656365697665643A05
:02036200200079
:00000001FF
